{
  "contractName": "BiometricIdentity",
  "abi": [
    {
      "inputs": [],
      "stateMutability": "nonpayable",
      "type": "constructor"
    },
    {
      "anonymous": false,
      "inputs": [
        {
          "indexed": false,
          "internalType": "string",
          "name": "ErrorMessage",
          "type": "string"
        }
      ],
      "name": "Error",
      "type": "event"
    },
    {
      "anonymous": false,
      "inputs": [
        {
          "indexed": true,
          "internalType": "address",
          "name": "_addr",
          "type": "address"
        }
      ],
      "name": "NodeDeleted",
      "type": "event"
    },
    {
      "anonymous": false,
      "inputs": [
        {
          "indexed": true,
          "internalType": "uint256",
          "name": "_ID",
          "type": "uint256"
        },
        {
          "indexed": false,
          "internalType": "string",
          "name": "_name",
          "type": "string"
        },
        {
          "indexed": false,
          "internalType": "address",
          "name": "_addr",
          "type": "address"
        }
      ],
      "name": "NodeSet",
      "type": "event"
    },
    {
      "anonymous": false,
      "inputs": [
        {
          "indexed": true,
          "internalType": "address",
          "name": "_addr",
          "type": "address"
        },
        {
          "indexed": false,
          "internalType": "bool",
          "name": "isAuthorised",
          "type": "bool"
        },
        {
          "indexed": false,
          "internalType": "bool",
          "name": "isEnrollment",
          "type": "bool"
        }
      ],
      "name": "NodeStatusUpdated",
      "type": "event"
    },
    {
      "anonymous": false,
      "inputs": [
        {
          "indexed": true,
          "internalType": "uint16",
          "name": "_ID",
          "type": "uint16"
        }
      ],
      "name": "SubjectDeleted",
      "type": "event"
    },
    {
      "anonymous": false,
      "inputs": [
        {
          "indexed": true,
          "internalType": "uint16",
          "name": "_ID",
          "type": "uint16"
        },
        {
          "indexed": false,
          "internalType": "uint16",
          "name": "_hx",
          "type": "uint16"
        },
        {
          "indexed": false,
          "internalType": "uint16",
          "name": "_delta",
          "type": "uint16"
        }
      ],
      "name": "SubjectSet",
      "type": "event"
    },
    {
      "anonymous": false,
      "inputs": [
        {
          "indexed": true,
          "internalType": "uint16",
          "name": "_ID",
          "type": "uint16"
        },
        {
          "indexed": false,
          "internalType": "uint16",
          "name": "_hx",
          "type": "uint16"
        },
        {
          "indexed": false,
          "internalType": "uint16",
          "name": "_delta",
          "type": "uint16"
        }
      ],
      "name": "SubjectUpdated",
      "type": "event"
    },
    {
      "inputs": [
        {
          "internalType": "uint16",
          "name": "_ID",
          "type": "uint16"
        },
        {
          "internalType": "uint16",
          "name": "_hx",
          "type": "uint16"
        },
        {
          "internalType": "uint16",
          "name": "_delta",
          "type": "uint16"
        }
      ],
      "name": "setSubject",
      "outputs": [],
      "stateMutability": "nonpayable",
      "type": "function"
    },
    {
      "inputs": [
        {
          "internalType": "uint16",
          "name": "_ID",
          "type": "uint16"
        }
      ],
      "name": "getSubject",
      "outputs": [
        {
          "internalType": "uint16",
          "name": "",
          "type": "uint16"
        },
        {
          "internalType": "uint16",
          "name": "",
          "type": "uint16"
        },
        {
          "internalType": "uint16",
          "name": "",
          "type": "uint16"
        }
      ],
      "stateMutability": "view",
      "type": "function",
      "constant": true
    },
    {
      "inputs": [
        {
          "internalType": "uint16",
          "name": "_ID",
          "type": "uint16"
        },
        {
          "internalType": "uint16",
          "name": "_hx",
          "type": "uint16"
        },
        {
          "internalType": "uint16",
          "name": "_delta",
          "type": "uint16"
        }
      ],
      "name": "updateSubject",
      "outputs": [],
      "stateMutability": "nonpayable",
      "type": "function"
    },
    {
      "inputs": [
        {
          "internalType": "uint16",
          "name": "_ID",
          "type": "uint16"
        }
      ],
      "name": "deleteSubject",
      "outputs": [],
      "stateMutability": "nonpayable",
      "type": "function"
    },
    {
      "inputs": [
        {
          "internalType": "uint256",
          "name": "_ID",
          "type": "uint256"
        },
        {
          "internalType": "string",
          "name": "_name",
          "type": "string"
        },
        {
          "internalType": "address",
          "name": "_addr",
          "type": "address"
        }
      ],
      "name": "setNode",
      "outputs": [],
      "stateMutability": "nonpayable",
      "type": "function"
    },
    {
      "inputs": [
        {
          "internalType": "address",
          "name": "_addr",
          "type": "address"
        }
      ],
      "name": "getNode",
      "outputs": [
        {
          "internalType": "uint256",
          "name": "",
          "type": "uint256"
        },
        {
          "internalType": "string",
          "name": "",
          "type": "string"
        },
        {
          "internalType": "address",
          "name": "",
          "type": "address"
        },
        {
          "internalType": "bool",
          "name": "",
          "type": "bool"
        },
        {
          "internalType": "bool",
          "name": "",
          "type": "bool"
        }
      ],
      "stateMutability": "view",
      "type": "function",
      "constant": true
    },
    {
      "inputs": [
        {
          "internalType": "address",
          "name": "_addr",
          "type": "address"
        }
      ],
      "name": "deleteNode",
      "outputs": [],
      "stateMutability": "nonpayable",
      "type": "function"
    },
    {
      "inputs": [
        {
          "internalType": "address",
          "name": "_addr",
          "type": "address"
        },
        {
          "internalType": "bool",
          "name": "_isAuthorised",
          "type": "bool"
        },
        {
          "internalType": "bool",
          "name": "_isEnrollment",
          "type": "bool"
        }
      ],
      "name": "updateNodeStatus",
      "outputs": [],
      "stateMutability": "nonpayable",
      "type": "function"
    }
  ],
  "bytecode": "0x608060405234801562000010575f80fd5b50335f806101000a81548173ffffffffffffffffffffffffffffffffffffffff021916908373ffffffffffffffffffffffffffffffffffffffff1602179055506040518060a00160405280600181526020016040518060400160405280601781526020017f466972737420456e726f6c6c6d656e742043656e74657200000000000000000081525081526020015f8054906101000a900473ffffffffffffffffffffffffffffffffffffffff1673ffffffffffffffffffffffffffffffffffffffff1681526020016001151581526020016001151581525060025f805f9054906101000a900473ffffffffffffffffffffffffffffffffffffffff1673ffffffffffffffffffffffffffffffffffffffff1673ffffffffffffffffffffffffffffffffffffffff1681526020019081526020015f205f820151815f0155602082015181600101908162000164919062000458565b506040820151816002015f6101000a81548173ffffffffffffffffffffffffffffffffffffffff021916908373ffffffffffffffffffffffffffffffffffffffff16021790555060608201518160020160146101000a81548160ff02191690831515021790555060808201518160020160156101000a81548160ff0219169083151502179055509050506200053c565b5f81519050919050565b7f4e487b71000000000000000000000000000000000000000000000000000000005f52604160045260245ffd5b7f4e487b71000000000000000000000000000000000000000000000000000000005f52602260045260245ffd5b5f60028204905060018216806200027057607f821691505b6020821081036200028657620002856200022b565b5b50919050565b5f819050815f5260205f209050919050565b5f6020601f8301049050919050565b5f82821b905092915050565b5f60088302620002ea7fffffffffffffffffffffffffffffffffffffffffffffffffffffffffffffffff82620002ad565b620002f68683620002ad565b95508019841693508086168417925050509392505050565b5f819050919050565b5f819050919050565b5f620003406200033a62000334846200030e565b62000317565b6200030e565b9050919050565b5f819050919050565b6200035b8362000320565b620003736200036a8262000347565b848454620002b9565b825550505050565b5f90565b620003896200037b565b6200039681848462000350565b505050565b5b81811015620003bd57620003b15f826200037f565b6001810190506200039c565b5050565b601f8211156200040c57620003d6816200028c565b620003e1846200029e565b81016020851015620003f1578190505b6200040962000400856200029e565b8301826200039b565b50505b505050565b5f82821c905092915050565b5f6200042e5f198460080262000411565b1980831691505092915050565b5f6200044883836200041d565b9150826002028217905092915050565b6200046382620001f4565b67ffffffffffffffff8111156200047f576200047e620001fe565b5b6200048b825462000258565b62000498828285620003c1565b5f60209050601f831160018114620004ce575f8415620004b9578287015190505b620004c585826200043b565b86555062000534565b601f198416620004de866200028c565b5f5b828110156200050757848901518255600182019150602085019450602081019050620004e0565b8683101562000527578489015162000523601f8916826200041d565b8355505b6001600288020188555050505b505050505050565b61174a806200054a5f395ff3fe608060405234801561000f575f80fd5b5060043610610086575f3560e01c80639d209048116100595780639d209048146100fa578063bf10927b1461012e578063e7afef961461014a578063f8c03e531461017c57610086565b80630c974ab51461008a578063199332e6146100a65780632d4ede93146100c257806336708a20146100de575b5f80fd5b6100a4600480360381019061009f9190610fa2565b610198565b005b6100c060048036038101906100bb9190611045565b61038a565b005b6100dc60048036038101906100d79190611095565b610501565b005b6100f860048036038101906100f39190611045565b610677565b005b610114600480360381019061010f9190611095565b6107a0565b604051610125959493929190611172565b60405180910390f35b610148600480360381019061014391906111f4565b6109ce565b005b610164600480360381019061015f9190611244565b610b29565b6040516101739392919061127e565b60405180910390f35b61019660048036038101906101919190611244565b610c58565b005b60025f3373ffffffffffffffffffffffffffffffffffffffff1673ffffffffffffffffffffffffffffffffffffffff1681526020019081526020015f2060020160159054906101000a900460ff16610225576040517f08c379a000000000000000000000000000000000000000000000000000000000815260040161021c90611323565b60405180910390fd5b6040518060a001604052808481526020018381526020018273ffffffffffffffffffffffffffffffffffffffff1681526020016001151581526020015f151581525060025f8373ffffffffffffffffffffffffffffffffffffffff1673ffffffffffffffffffffffffffffffffffffffff1681526020019081526020015f205f820151815f015560208201518160010190816102c1919061153b565b506040820151816002015f6101000a81548173ffffffffffffffffffffffffffffffffffffffff021916908373ffffffffffffffffffffffffffffffffffffffff16021790555060608201518160020160146101000a81548160ff02191690831515021790555060808201518160020160156101000a81548160ff021916908315150217905550905050827fc2de6376f12350edcc0fbc76d63f96e8e876548a946bb8922f6c3495a01c0e14838360405161037d92919061160a565b60405180910390a2505050565b60025f3373ffffffffffffffffffffffffffffffffffffffff1673ffffffffffffffffffffffffffffffffffffffff1681526020019081526020015f2060020160159054906101000a900460ff16610417576040517f08c379a000000000000000000000000000000000000000000000000000000000815260040161040e90611323565b60405180910390fd5b60405180606001604052808461ffff1681526020018361ffff1681526020018261ffff1681525060015f8561ffff1661ffff1681526020019081526020015f205f820151815f015f6101000a81548161ffff021916908361ffff1602179055506020820151815f0160026101000a81548161ffff021916908361ffff1602179055506040820151815f0160046101000a81548161ffff021916908361ffff1602179055509050508261ffff167f705e82cb72ba08ffb7886d0619c78bbc431bb270466dcf6e70f3300d9d6ae19c83836040516104f4929190611638565b60405180910390a2505050565b60025f3373ffffffffffffffffffffffffffffffffffffffff1673ffffffffffffffffffffffffffffffffffffffff1681526020019081526020015f2060020160159054906101000a900460ff1661058e576040517f08c379a000000000000000000000000000000000000000000000000000000000815260040161058590611323565b60405180910390fd5b60025f8273ffffffffffffffffffffffffffffffffffffffff1673ffffffffffffffffffffffffffffffffffffffff1681526020019081526020015f205f8082015f9055600182015f6105e19190610d70565b600282015f6101000a81549073ffffffffffffffffffffffffffffffffffffffff02191690556002820160146101000a81549060ff02191690556002820160156101000a81549060ff021916905550508073ffffffffffffffffffffffffffffffffffffffff167f1629bfc36423a1b4749d3fe1d6970b9d32d42bbee47dd5540670696ab6b9a4ad60405160405180910390a250565b60025f3373ffffffffffffffffffffffffffffffffffffffff1673ffffffffffffffffffffffffffffffffffffffff1681526020019081526020015f2060020160159054906101000a900460ff16610704576040517f08c379a00000000000000000000000000000000000000000000000000000000081526004016106fb90611323565b60405180910390fd5b5f60015f8561ffff1661ffff1681526020019081526020015f20905082815f0160026101000a81548161ffff021916908361ffff16021790555081815f0160046101000a81548161ffff021916908361ffff1602179055508361ffff167f89fcbace31684b725e009a93373d8944506df968bfa1a6e92b3bd41ce7da7d168484604051610792929190611638565b60405180910390a250505050565b5f60605f805f60025f3373ffffffffffffffffffffffffffffffffffffffff1673ffffffffffffffffffffffffffffffffffffffff1681526020019081526020015f2060020160159054906101000a900460ff16610833576040517f08c379a000000000000000000000000000000000000000000000000000000000815260040161082a90611323565b60405180910390fd5b5f60025f8873ffffffffffffffffffffffffffffffffffffffff1673ffffffffffffffffffffffffffffffffffffffff1681526020019081526020015f206040518060a00160405290815f82015481526020016001820180546108959061136e565b80601f01602080910402602001604051908101604052809291908181526020018280546108c19061136e565b801561090c5780601f106108e35761010080835404028352916020019161090c565b820191905f5260205f20905b8154815290600101906020018083116108ef57829003601f168201915b50505050508152602001600282015f9054906101000a900473ffffffffffffffffffffffffffffffffffffffff1673ffffffffffffffffffffffffffffffffffffffff1673ffffffffffffffffffffffffffffffffffffffff1681526020016002820160149054906101000a900460ff161515151581526020016002820160159054906101000a900460ff1615151515815250509050805f01518160200151826040015183606001518460800151955095509550955095505091939590929450565b60025f3373ffffffffffffffffffffffffffffffffffffffff1673ffffffffffffffffffffffffffffffffffffffff1681526020019081526020015f2060020160159054906101000a900460ff16610a5b576040517f08c379a0000000000000000000000000000000000000000000000000000000008152600401610a5290611323565b60405180910390fd5b5f60025f8573ffffffffffffffffffffffffffffffffffffffff1673ffffffffffffffffffffffffffffffffffffffff1681526020019081526020015f209050828160020160146101000a81548160ff021916908315150217905550818160020160156101000a81548160ff0219169083151502179055508373ffffffffffffffffffffffffffffffffffffffff167fb8ddd6342f9ad5754f834b60538a5064ed6c16318e30a5904cf9d45c73713ffe8484604051610b1b92919061165f565b60405180910390a250505050565b5f805f60025f3373ffffffffffffffffffffffffffffffffffffffff1673ffffffffffffffffffffffffffffffffffffffff1681526020019081526020015f2060020160149054906101000a900460ff16610bb9576040517f08c379a0000000000000000000000000000000000000000000000000000000008152600401610bb0906116f6565b60405180910390fd5b5f60015f8661ffff1661ffff1681526020019081526020015f206040518060600160405290815f82015f9054906101000a900461ffff1661ffff1661ffff1681526020015f820160029054906101000a900461ffff1661ffff1661ffff1681526020015f820160049054906101000a900461ffff1661ffff1661ffff16815250509050805f015181602001518260400151935093509350509193909250565b60025f3373ffffffffffffffffffffffffffffffffffffffff1673ffffffffffffffffffffffffffffffffffffffff1681526020019081526020015f2060020160159054906101000a900460ff16610ce5576040517f08c379a0000000000000000000000000000000000000000000000000000000008152600401610cdc90611323565b60405180910390fd5b60015f8261ffff1661ffff1681526020019081526020015f205f8082015f6101000a81549061ffff02191690555f820160026101000a81549061ffff02191690555f820160046101000a81549061ffff021916905550508061ffff167f080a3dbc199b5e49aa446fdb135bf756ae29bee41759a7453130f35de7df6e5560405160405180910390a250565b508054610d7c9061136e565b5f825580601f10610d8d5750610daa565b601f0160209004905f5260205f2090810190610da99190610dad565b5b50565b5b80821115610dc4575f815f905550600101610dae565b5090565b5f604051905090565b5f80fd5b5f80fd5b5f819050919050565b610deb81610dd9565b8114610df5575f80fd5b50565b5f81359050610e0681610de2565b92915050565b5f80fd5b5f80fd5b5f601f19601f8301169050919050565b7f4e487b71000000000000000000000000000000000000000000000000000000005f52604160045260245ffd5b610e5a82610e14565b810181811067ffffffffffffffff82111715610e7957610e78610e24565b5b80604052505050565b5f610e8b610dc8565b9050610e978282610e51565b919050565b5f67ffffffffffffffff821115610eb657610eb5610e24565b5b610ebf82610e14565b9050602081019050919050565b828183375f83830152505050565b5f610eec610ee784610e9c565b610e82565b905082815260208101848484011115610f0857610f07610e10565b5b610f13848285610ecc565b509392505050565b5f82601f830112610f2f57610f2e610e0c565b5b8135610f3f848260208601610eda565b91505092915050565b5f73ffffffffffffffffffffffffffffffffffffffff82169050919050565b5f610f7182610f48565b9050919050565b610f8181610f67565b8114610f8b575f80fd5b50565b5f81359050610f9c81610f78565b92915050565b5f805f60608486031215610fb957610fb8610dd1565b5b5f610fc686828701610df8565b935050602084013567ffffffffffffffff811115610fe757610fe6610dd5565b5b610ff386828701610f1b565b925050604061100486828701610f8e565b9150509250925092565b5f61ffff82169050919050565b6110248161100e565b811461102e575f80fd5b50565b5f8135905061103f8161101b565b92915050565b5f805f6060848603121561105c5761105b610dd1565b5b5f61106986828701611031565b935050602061107a86828701611031565b925050604061108b86828701611031565b9150509250925092565b5f602082840312156110aa576110a9610dd1565b5b5f6110b784828501610f8e565b91505092915050565b6110c981610dd9565b82525050565b5f81519050919050565b5f82825260208201905092915050565b5f5b838110156111065780820151818401526020810190506110eb565b5f8484015250505050565b5f61111b826110cf565b61112581856110d9565b93506111358185602086016110e9565b61113e81610e14565b840191505092915050565b61115281610f67565b82525050565b5f8115159050919050565b61116c81611158565b82525050565b5f60a0820190506111855f8301886110c0565b81810360208301526111978187611111565b90506111a66040830186611149565b6111b36060830185611163565b6111c06080830184611163565b9695505050505050565b6111d381611158565b81146111dd575f80fd5b50565b5f813590506111ee816111ca565b92915050565b5f805f6060848603121561120b5761120a610dd1565b5b5f61121886828701610f8e565b9350506020611229868287016111e0565b925050604061123a868287016111e0565b9150509250925092565b5f6020828403121561125957611258610dd1565b5b5f61126684828501611031565b91505092915050565b6112788161100e565b82525050565b5f6060820190506112915f83018661126f565b61129e602083018561126f565b6112ab604083018461126f565b949350505050565b7f43616c6c6572206973206e6f7420616e20456e726f6c6c6d656e742043656e745f8201527f6572000000000000000000000000000000000000000000000000000000000000602082015250565b5f61130d6022836110d9565b9150611318826112b3565b604082019050919050565b5f6020820190508181035f83015261133a81611301565b9050919050565b7f4e487b71000000000000000000000000000000000000000000000000000000005f52602260045260245ffd5b5f600282049050600182168061138557607f821691505b60208210810361139857611397611341565b5b50919050565b5f819050815f5260205f209050919050565b5f6020601f8301049050919050565b5f82821b905092915050565b5f600883026113fa7fffffffffffffffffffffffffffffffffffffffffffffffffffffffffffffffff826113bf565b61140486836113bf565b95508019841693508086168417925050509392505050565b5f819050919050565b5f61143f61143a61143584610dd9565b61141c565b610dd9565b9050919050565b5f819050919050565b61145883611425565b61146c61146482611446565b8484546113cb565b825550505050565b5f90565b611480611474565b61148b81848461144f565b505050565b5b818110156114ae576114a35f82611478565b600181019050611491565b5050565b601f8211156114f3576114c48161139e565b6114cd846113b0565b810160208510156114dc578190505b6114f06114e8856113b0565b830182611490565b50505b505050565b5f82821c905092915050565b5f6115135f19846008026114f8565b1980831691505092915050565b5f61152b8383611504565b9150826002028217905092915050565b611544826110cf565b67ffffffffffffffff81111561155d5761155c610e24565b5b611567825461136e565b6115728282856114b2565b5f60209050601f8311600181146115a3575f8415611591578287015190505b61159b8582611520565b865550611602565b601f1984166115b18661139e565b5f5b828110156115d8578489015182556001820191506020850194506020810190506115b3565b868310156115f557848901516115f1601f891682611504565b8355505b6001600288020188555050505b505050505050565b5f6040820190508181035f8301526116228185611111565b90506116316020830184611149565b9392505050565b5f60408201905061164b5f83018561126f565b611658602083018461126f565b9392505050565b5f6040820190506116725f830185611163565b61167f6020830184611163565b9392505050565b7f43616c6c6572206973206e6f7420616e20617574686f72697a656420417574685f8201527f656e7469636174696f6e2043656e746572000000000000000000000000000000602082015250565b5f6116e06031836110d9565b91506116eb82611686565b604082019050919050565b5f6020820190508181035f83015261170d816116d4565b905091905056fea264697066735822122054c47f10120633e047494cf5ccb058523aa1947e7ab2197a3f5c2cc762a22d5364736f6c63430008150033",
  "immutableReferences": {},
  "source": "// SPDX-License-Identifier: MIT\npragma solidity ^0.8.21;\n\ncontract BiometricIdentity {\n    \n    // Structures\n    struct Subject {\n        uint16 ID;           // ID of the Subject \n        uint16 hx;           // Hash representation\n        uint16 delta;        // The offset\n    }\n    \n    struct Node {\n        uint ID;             // ID of the Node\n        string name;         // Name of the Node\n        address addr;        // Ethereum address of the Node\n        bool isAuthorised;   // Authorization status for AC\n        bool isEnrollment;   // Enrollment center status for EC\n    }\n\n    // Events\n    event SubjectSet(uint16 indexed _ID, uint16 _hx, uint16 _delta);\n    event SubjectUpdated(uint16 indexed _ID, uint16 _hx, uint16 _delta);\n    event SubjectDeleted(uint16 indexed _ID);\n    event NodeSet(uint indexed _ID, string _name, address _addr);\n    event NodeDeleted(address indexed _addr);\n    event NodeStatusUpdated(address indexed _addr, bool isAuthorised, bool isEnrollment);\n    event Error(string ErrorMessage);\n\n    // Private state variable for contract creator's address\n    address private owner;\n    \n    // Mappings\n    mapping(uint16 => Subject) private subjects;\n    mapping(address => Node) private nodes;\n\n    // Modifiers\n    modifier isAC() {\n        require(nodes[msg.sender].isAuthorised, \"Caller is not an authorized Authentication Center\");\n        _;\n    }\n\n    modifier isEC() {\n        require(nodes[msg.sender].isEnrollment, \"Caller is not an Enrollment Center\");\n        _;\n    }\n    \n    // Constructor\n    constructor() {\n        owner = msg.sender;\n        nodes[owner] = Node({\n            ID: 1,\n            name: \"First Enrollment Center\",\n            addr: owner,\n            isAuthorised: true,\n            isEnrollment: true\n        });\n    }\n    \n    // Functions for Subjects\n    function setSubject(uint16 _ID, uint16 _hx, uint16 _delta) public isEC {\n        subjects[_ID] = Subject(_ID, _hx, _delta);\n        emit SubjectSet(_ID, _hx, _delta);\n    }\n\n    function getSubject(uint16 _ID) public view isAC returns (uint16, uint16, uint16) {\n        Subject memory subject = subjects[_ID];\n        return (subject.ID, subject.hx, subject.delta);\n    }\n\n    function updateSubject(uint16 _ID, uint16 _hx, uint16 _delta) public isEC {\n        Subject storage subject = subjects[_ID];\n        subject.hx = _hx;\n        subject.delta = _delta;\n        emit SubjectUpdated(_ID, _hx, _delta);\n    }\n\n    function deleteSubject(uint16 _ID) public isEC {\n        delete subjects[_ID];\n        emit SubjectDeleted(_ID);\n    }\n    \n    // Functions for Nodes\n    function setNode(uint _ID, string memory _name, address _addr) public isEC {\n        nodes[_addr] = Node(_ID, _name, _addr, true, false); // Setting as authorized but not an enrollment center by default\n        emit NodeSet(_ID, _name, _addr);\n    }\n\n    function getNode(address _addr) public view isEC returns (uint, string memory, address, bool, bool) {\n        Node memory node = nodes[_addr];\n        return (node.ID, node.name, node.addr, node.isAuthorised, node.isEnrollment);\n    }\n\n    function deleteNode(address _addr) public isEC {\n        delete nodes[_addr];\n        emit NodeDeleted(_addr);\n    }\n\n    function updateNodeStatus(address _addr, bool _isAuthorised, bool _isEnrollment) public isEC {\n        Node storage node = nodes[_addr];\n        node.isAuthorised = _isAuthorised;\n        node.isEnrollment = _isEnrollment;\n        emit NodeStatusUpdated(_addr, _isAuthorised, _isEnrollment);\n    }\n}\n",
  "sourcePath": "/home/nibras/SC/BiometricsFCS/contracts/BiometricsFCS.sol",
  "compiler": {
    "name": "solc",
    "version": "0.8.21+commit.d9974bed.Emscripten.clang"
  },
  "schemaVersion": "3.4.16",
  "updatedAt": "2024-02-13T11:12:59.727Z",
  "networkType": "ethereum",
  "devdoc": {
    "kind": "dev",
    "methods": {},
    "version": 1
  },
  "userdoc": {
    "kind": "user",
    "methods": {},
    "version": 1
  }
}